{
  "contractName": "SupplyChain",
  "abi": [
    {
      "inputs": [],
      "stateMutability": "nonpayable",
      "type": "constructor"
    },
    {
      "anonymous": false,
      "inputs": [
        {
          "indexed": false,
          "internalType": "uint256",
          "name": "sku",
          "type": "uint256"
        }
      ],
      "name": "LogForSale",
      "type": "event"
    },
    {
      "anonymous": false,
      "inputs": [
        {
          "indexed": false,
          "internalType": "uint256",
          "name": "sku",
          "type": "uint256"
        }
      ],
      "name": "LogReceived",
      "type": "event"
    },
    {
      "anonymous": false,
      "inputs": [
        {
          "indexed": false,
          "internalType": "uint256",
          "name": "sku",
          "type": "uint256"
        }
      ],
      "name": "LogShipped",
      "type": "event"
    },
    {
      "anonymous": false,
      "inputs": [
        {
          "indexed": false,
          "internalType": "uint256",
          "name": "sku",
          "type": "uint256"
        }
      ],
      "name": "LogSold",
      "type": "event"
    },
    {
      "inputs": [
        {
          "internalType": "uint256",
          "name": "",
          "type": "uint256"
        }
      ],
      "name": "items",
      "outputs": [
        {
          "internalType": "string",
          "name": "name",
          "type": "string"
        },
        {
          "internalType": "uint256",
          "name": "sku",
          "type": "uint256"
        },
        {
          "internalType": "uint256",
          "name": "price",
          "type": "uint256"
        },
        {
          "internalType": "enum SupplyChain.State",
          "name": "state",
          "type": "uint8"
        },
        {
          "internalType": "address payable",
          "name": "seller",
          "type": "address"
        },
        {
          "internalType": "address payable",
          "name": "buyer",
          "type": "address"
        }
      ],
      "stateMutability": "view",
      "type": "function",
      "constant": true
    },
    {
      "inputs": [],
      "name": "owner",
      "outputs": [
        {
          "internalType": "address",
          "name": "",
          "type": "address"
        }
      ],
      "stateMutability": "view",
      "type": "function",
      "constant": true
    },
    {
      "inputs": [],
      "name": "skuCount",
      "outputs": [
        {
          "internalType": "uint256",
          "name": "",
          "type": "uint256"
        }
      ],
      "stateMutability": "view",
      "type": "function",
      "constant": true
    },
    {
      "inputs": [
        {
          "internalType": "string",
          "name": "_name",
          "type": "string"
        },
        {
          "internalType": "uint256",
          "name": "_price",
          "type": "uint256"
        }
      ],
      "name": "addItem",
      "outputs": [
        {
          "internalType": "bool",
          "name": "",
          "type": "bool"
        }
      ],
      "stateMutability": "nonpayable",
      "type": "function"
    },
    {
      "inputs": [
        {
          "internalType": "uint256",
          "name": "sku",
          "type": "uint256"
        }
      ],
      "name": "buyItem",
      "outputs": [],
      "stateMutability": "payable",
      "type": "function",
      "payable": true
    },
    {
      "inputs": [
        {
          "internalType": "uint256",
          "name": "sku",
          "type": "uint256"
        }
      ],
      "name": "shipItem",
      "outputs": [],
      "stateMutability": "nonpayable",
      "type": "function"
    },
    {
      "inputs": [
        {
          "internalType": "uint256",
          "name": "sku",
          "type": "uint256"
        }
      ],
      "name": "receiveItem",
      "outputs": [],
      "stateMutability": "nonpayable",
      "type": "function"
    },
    {
      "inputs": [
        {
          "internalType": "uint256",
          "name": "_sku",
          "type": "uint256"
        }
      ],
      "name": "fetchItem",
      "outputs": [
        {
          "internalType": "string",
          "name": "name",
          "type": "string"
        },
        {
          "internalType": "uint256",
          "name": "sku",
          "type": "uint256"
        },
        {
          "internalType": "uint256",
          "name": "price",
          "type": "uint256"
        },
        {
          "internalType": "uint256",
          "name": "state",
          "type": "uint256"
        },
        {
          "internalType": "address",
          "name": "seller",
          "type": "address"
        },
        {
          "internalType": "address",
          "name": "buyer",
          "type": "address"
        }
      ],
      "stateMutability": "view",
      "type": "function",
      "constant": true
    }
  ],
  "bytecode": "0x608060405234801561001057600080fd5b50336000806101000a81548173ffffffffffffffffffffffffffffffffffffffff021916908373ffffffffffffffffffffffffffffffffffffffff1602179055506000600181905550610f25806100686000396000f3fe60806040526004361061007b5760003560e01c8063ad4b9cfb1161004e578063ad4b9cfb1461020f578063bfb231d214610312578063e7fb74c714610420578063f61c899a1461044e5761007b565b8063227024731461008057806362d6bbdf146100ab5780638da5cb5b14610193578063a26be999146101d4575b600080fd5b34801561008c57600080fd5b50610095610489565b6040518082815260200191505060405180910390f35b3480156100b757600080fd5b5061017b600480360360408110156100ce57600080fd5b81019080803590602001906401000000008111156100eb57600080fd5b8201836020820111156100fd57600080fd5b8035906020019184600183028401116401000000008311171561011f57600080fd5b91908080601f016020809104026020016040519081016040528093929190818152602001838380828437600081840152601f19601f8201169050808301925050505050505091929192908035906020019092919050505061048f565b60405180821515815260200191505060405180910390f35b34801561019f57600080fd5b506101a8610647565b604051808273ffffffffffffffffffffffffffffffffffffffff16815260200191505060405180910390f35b3480156101e057600080fd5b5061020d600480360360208110156101f757600080fd5b810190808035906020019092919050505061066b565b005b34801561021b57600080fd5b506102486004803603602081101561023257600080fd5b8101908080359060200190929190505050610795565b60405180806020018781526020018681526020018581526020018473ffffffffffffffffffffffffffffffffffffffff1681526020018373ffffffffffffffffffffffffffffffffffffffff168152602001828103825288818151815260200191508051906020019080838360005b838110156102d25780820151818401526020810190506102b7565b50505050905090810190601f1680156102ff5780820380516001836020036101000a031916815260200191505b5097505050505050505060405180910390f35b34801561031e57600080fd5b5061034b6004803603602081101561033557600080fd5b810190808035906020019092919050505061092e565b604051808060200187815260200186815260200185600381111561036b57fe5b81526020018473ffffffffffffffffffffffffffffffffffffffff1681526020018373ffffffffffffffffffffffffffffffffffffffff168152602001828103825288818151815260200191508051906020019080838360005b838110156103e05780820151818401526020810190506103c5565b50505050905090810190601f16801561040d5780820380516001836020036101000a031916815260200191505b5097505050505050505060405180910390f35b61044c6004803603602081101561043657600080fd5b8101908080359060200190929190505050610a4f565b005b34801561045a57600080fd5b506104876004803603602081101561047157600080fd5b8101908080359060200190929190505050610d29565b005b60015481565b60007f4627c48065af2a9648cbecdd4b9da340c00e501243cd49a8a71c30c987e8b7616001546040518082815260200191505060405180910390a16040518060c001604052808481526020016001548152602001838152602001600060038111156104f657fe5b81526020013373ffffffffffffffffffffffffffffffffffffffff168152602001600073ffffffffffffffffffffffffffffffffffffffff168152506002600060015481526020019081526020016000206000820151816000019080519060200190610563929190610e52565b50602082015181600101556040820151816002015560608201518160030160006101000a81548160ff0219169083600381111561059c57fe5b021790555060808201518160030160016101000a81548173ffffffffffffffffffffffffffffffffffffffff021916908373ffffffffffffffffffffffffffffffffffffffff16021790555060a08201518160040160006101000a81548173ffffffffffffffffffffffffffffffffffffffff021916908373ffffffffffffffffffffffffffffffffffffffff16021790555090505060018054016001819055506001905092915050565b60008054906101000a900473ffffffffffffffffffffffffffffffffffffffff1681565b806002600381111561067957fe5b6002600083815260200190815260200160002060030160009054906101000a900460ff1660038111156106a857fe5b146106b257600080fd5b6002600083815260200190815260200160002060040160009054906101000a900473ffffffffffffffffffffffffffffffffffffffff168073ffffffffffffffffffffffffffffffffffffffff163373ffffffffffffffffffffffffffffffffffffffff161461072157600080fd5b60036002600085815260200190815260200160002060030160006101000a81548160ff0219169083600381111561075457fe5b02179055507f5a98827d06afe0e04647b3aed26f1ffb77171ad9ac41603c4ef623a6638798c1836040518082815260200191505060405180910390a1505050565b60606000806000806000600260008881526020019081526020016000206000018054600181600116156101000203166002900480601f0160208091040260200160405190810160405280929190818152602001828054600181600116156101000203166002900480156108495780601f1061081e57610100808354040283529160200191610849565b820191906000526020600020905b81548152906001019060200180831161082c57829003601f168201915b5050505050955060026000888152602001908152602001600020600101549450600260008881526020019081526020016000206002015493506002600088815260200190815260200160002060030160009054906101000a900460ff1660038111156108b157fe5b92506002600088815260200190815260200160002060030160019054906101000a900473ffffffffffffffffffffffffffffffffffffffff1691506002600088815260200190815260200160002060040160009054906101000a900473ffffffffffffffffffffffffffffffffffffffff16905091939550919395565b6002602052806000526040600020600091509050806000018054600181600116156101000203166002900480601f0160208091040260200160405190810160405280929190818152602001828054600181600116156101000203166002900480156109da5780601f106109af576101008083540402835291602001916109da565b820191906000526020600020905b8154815290600101906020018083116109bd57829003601f168201915b5050505050908060010154908060020154908060030160009054906101000a900460ff16908060030160019054906101000a900473ffffffffffffffffffffffffffffffffffffffff16908060040160009054906101000a900473ffffffffffffffffffffffffffffffffffffffff16905086565b8060006003811115610a5d57fe5b6002600083815260200190815260200160002060030160009054906101000a900460ff166003811115610a8c57fe5b14610a9657600080fd5b600073ffffffffffffffffffffffffffffffffffffffff166002600083815260200190815260200160002060030160019054906101000a900473ffffffffffffffffffffffffffffffffffffffff1673ffffffffffffffffffffffffffffffffffffffff161415610b0657600080fd5b600260008381526020019081526020016000206002015480341015610b2a57600080fd5b826002600085815260200190815260200160002060030160019054906101000a900473ffffffffffffffffffffffffffffffffffffffff1673ffffffffffffffffffffffffffffffffffffffff166108fc60026000878152602001908152602001600020600201549081150290604051600060405180830381858888f19350505050158015610bbd573d6000803e3d6000fd5b50336002600086815260200190815260200160002060040160006101000a81548173ffffffffffffffffffffffffffffffffffffffff021916908373ffffffffffffffffffffffffffffffffffffffff16021790555060016002600086815260200190815260200160002060030160006101000a81548160ff02191690836003811115610c4657fe5b02179055507fe64ca8c671e48636f85f3008c1dd538e36bfa74fb6f2790b56b72fcc33b879ef846040518082815260200191505060405180910390a1600060026000838152602001908152602001600020600201549050600081340390506002600084815260200190815260200160002060040160009054906101000a900473ffffffffffffffffffffffffffffffffffffffff1673ffffffffffffffffffffffffffffffffffffffff166108fc829081150290604051600060405180830381858888f19350505050158015610d20573d6000803e3d6000fd5b50505050505050565b8060016003811115610d3757fe5b6002600083815260200190815260200160002060030160009054906101000a900460ff166003811115610d6657fe5b14610d7057600080fd5b6002600083815260200190815260200160002060030160019054906101000a900473ffffffffffffffffffffffffffffffffffffffff168073ffffffffffffffffffffffffffffffffffffffff163373ffffffffffffffffffffffffffffffffffffffff1614610ddf57600080fd5b600280600085815260200190815260200160002060030160006101000a81548160ff02191690836003811115610e1157fe5b02179055507feaf695929fec8154f0eafe7248c0e16855eb9ad09e623be92f669e544d53e856836040518082815260200191505060405180910390a1505050565b828054600181600116156101000203166002900490600052602060002090601f016020900481019282601f10610e9357805160ff1916838001178555610ec1565b82800160010185558215610ec1579182015b82811115610ec0578251825591602001919060010190610ea5565b5b509050610ece9190610ed2565b5090565b5b80821115610eeb576000816000905550600101610ed3565b509056fea264697066735822122008336d9fe9a800dbd2f44661086c72db07e2dda76d0c24034df504454697eb7d64736f6c634300060c0033",
  "immutableReferences": {},
  "source": "/*\r\n    This exercise has been updated to use Solidity version 0.6\r\n    Breaking changes from 0.5 to 0.6 can be found here: \r\n    https://solidity.readthedocs.io/en/v0.6.12/060-breaking-changes.html\r\n*/\r\n\r\n/*\r\n    PROGRAMMER: Francis Mendoza\r\n    EMAIL: fmendoz7@asu.edu\r\n    ASSIGNMENT: Supply Chain Exercise\r\n*/\r\n\r\npragma solidity >=0.6.0 <0.7.0;\r\n\r\ncontract SupplyChain {\r\n\r\n  /* [X] set owner */\r\n  address public owner;\r\n\r\n  /* [X] Add a variable called skuCount to track THE MOST RECENT sku # */\r\n  uint public skuCount;\r\n\r\n  /* [X] Add a line that creates a public mapping that maps the SKU (a number) to an Item.\r\n     Call this mappings items\r\n  */\r\n/*------------------------------------------------------------------------------------------------------------------------------------------*/\r\n\r\n  //Access an item through their sku number\r\n  mapping (uint => Item) public items;\r\n\r\n  /* [X] Add a line that creates an ENUM called State. This should have 4 states\r\n    [X] ForSale\r\n    [X] Sold\r\n    [X] Shipped\r\n    [X] Received\r\n    (declaring them in this order is important for testing)\r\n  */\r\n/*------------------------------------------------------------------------------------------------------------------------------------------*/\r\n\r\n  //This merely initializes it\r\n  //This enum lists the potential state of a product\r\n  enum State {\r\n    ForSale,\r\n    Sold,\r\n    Shipped,\r\n    Received\r\n  }\r\n\r\n  //Per warnings from Solidity compiler, commented out to prevent shadowed declaration warning\r\n  //State state;\r\n/*------------------------------------------------------------------------------------------------------------------------------------------*/\r\n\r\n  /* [X] Create a struct named Item.\r\n    [X] Here, add a name, sku, price, state, seller, and buyer\r\n    We've left you to figure out what the appropriate types are,\r\n    if you need help you can ask around :)\r\n    Be sure to add \"payable\" to addresses that will be handling value transfer\r\n  */\r\n  struct Item {\r\n    string name;\r\n    uint sku;\r\n    uint price;\r\n    State state;\r\n    address payable seller;\r\n    address payable buyer;\r\n  }\r\n/*------------------------------------------------------------------------------------------------------------------------------------------*/\r\n\r\n  /* Create 4 events with the same name as each possible State (see above)\r\n    [X] Prefix each event with \"Log\" for clarity, so the forSale event will be called \"LogForSale\"\r\n    [X] Each event should accept ONE argument, the sku */\r\n\r\n    //States can be found with the enum\r\n    event LogForSale(uint sku);\r\n    event LogSold(uint sku);\r\n    event LogShipped(uint sku);\r\n    event LogReceived(uint sku);\r\n/*------------------------------------------------------------------------------------------------------------------------------------------*/\r\n\r\n/* [X] Create a modifer that checks if the msg.sender is the owner of the contract */\r\n//Provided the function satisfies the conditions, modifier can MODIFY the behavior of the function\r\n  modifier isOwner() {\r\n    require(msg.sender == owner);\r\n    _;\r\n  }\r\n\r\n  modifier verifyCaller (address _address) { \r\n    require (msg.sender == _address); \r\n    _;\r\n  }\r\n\r\n  modifier paidEnough(uint _price) { \r\n    require(msg.value >= _price); \r\n    _;\r\n  }\r\n\r\n  modifier checkValue(uint _sku) {\r\n    //refund them after pay for item (why it is before, _ checks for logic before func)\r\n    _;\r\n    uint _price = items[_sku].price;\r\n    uint amountToRefund = msg.value - _price;\r\n    items[_sku].buyer.transfer(amountToRefund);\r\n  }\r\n/*------------------------------------------------------------------------------------------------------------------------------------------*/\r\n\r\n  /* [X] For each of the following modifiers, use what you learned about modifiers\r\n   to give them functionality. For example, the forSale modifier should require\r\n   that the item with the given sku has the state ForSale. \r\n   Note that the uninitialized Item.State is 0, which is also the index of the ForSale value,\r\n   so checking that Item.State == ForSale is not sufficient to check that an Item is for sale.\r\n   Hint: What item properties will be non-zero when an Item has been added?\r\n   \r\n   PS: Uncomment the modifier but keep the name for testing purposes!\r\n   */\r\n  \r\n  \r\n  modifier forSale(uint sku) {\r\n    //(!!!)\r\n    require(items[sku].state == State.ForSale);\r\n    require(items[sku].seller != address(0));\r\n    _;\r\n  }\r\n\r\n  modifier sold(uint sku) {\r\n    require(items[sku].state == State.Sold);\r\n    _;\r\n  }\r\n\r\n  modifier shipped(uint sku) {\r\n    require(items[sku].state == State.Shipped);\r\n    _;\r\n  }\r\n\r\n  modifier received(uint sku) {\r\n    require(items[sku].state == State.Received);\r\n    _;\r\n  }\r\n\r\n/*------------------------------------------------------------------------------------------------------------------------------------------*/\r\n  constructor() public {\r\n    /* [X] Here, set the owner as the person who instantiated the contract\r\n       and set your skuCount to 0. */\r\n      owner = msg.sender;\r\n      skuCount = 0;\r\n  }\r\n/*------------------------------------------------------------------------------------------------------------------------------------------*/\r\n\r\n  function addItem(string memory _name, uint _price) public returns(bool){\r\n    emit LogForSale(skuCount);\r\n    items[skuCount] = Item({name: _name, sku: skuCount, price: _price, state: State.ForSale, seller: msg.sender, buyer: address(0)});\r\n    skuCount = skuCount + 1;\r\n    return true;\r\n  }\r\n\r\n  /* [X] Add a keyword so the function can be paid. This function should transfer money\r\n    to the seller, set the buyer as the person who called this transaction, and set the state\r\n    to Sold. Be careful, this function should use 3 MODIFIERS to check if:\r\n      - [X] The item is for sale,\r\n      - [X] If the buyer paid enough\r\n      - [X] Check the value after the function is called to make sure the buyer is refunded any excess ether sent. \r\n    Remember to call the event associated with this function!*/\r\n\r\n  function buyItem(uint sku) public payable \r\n  forSale(sku) paidEnough(items[sku].price) checkValue(sku) {\r\n    //Wire money to seller, initialize buyer, change state of item to SOLD\r\n    items[sku].seller.transfer(items[sku].price);\r\n    items[sku].buyer = msg.sender;\r\n    items[sku].state = State.Sold;\r\n\r\n    //EMIT: State Change that item was successfully sold\r\n    emit LogSold(sku);\r\n  }\r\n/*------------------------------------------------------------------------------------------------------------------------------------------*/\r\n\r\n  /* [X] Add 2 modifiers to check if the item is:\r\n    - [X] Sold already\r\n    - [X] The person calling this function is the seller. \r\n  Change the state of the item to shipped. \r\n  Remember to call the event associated with this function!*/\r\n  function shipItem(uint sku)\r\n    public sold(sku) verifyCaller(items[sku].seller) {\r\n      items[sku].state = State.Shipped;\r\n\r\n      //EMIT: State changed for item to be shipped\r\n      emit LogShipped(sku);\r\n    }\r\n/*------------------------------------------------------------------------------------------------------------------------------------------*/\r\n\r\n  /* [X] Add 2 modifiers to check if the item is:\r\n    - [X] Shipped already\r\n    - [X] The person calling this function is the buyer\r\n  Change the state of the item to received. \r\n  Remember to call the event associated with this function!*/\r\n  function receiveItem(uint sku)\r\n    public shipped(sku) verifyCaller(items[sku].buyer) {\r\n      items[sku].state = State.Received;\r\n      \r\n      //EMIT: State changed for item as received\r\n      emit LogReceived(sku);\r\n    }\r\n\r\n/*------------------------------------------------------------------------------------------------------------------------------------------*/\r\n\r\n  /* We have these functions completed so we can run tests, just ignore it :) */\r\n  //Uncomment to run tests successfully\r\n  function fetchItem(uint _sku) public view returns (string memory name, uint sku, uint price, uint state, address seller, address buyer) {\r\n    name = items[_sku].name;\r\n    sku = items[_sku].sku;\r\n    price = items[_sku].price;\r\n    state = uint(items[_sku].state);\r\n    seller = items[_sku].seller;\r\n    buyer = items[_sku].buyer;\r\n    return (name, sku, price, state, seller, buyer);\r\n  }\r\n\r\n}\r\n",
  "sourcePath": "C:/Users/franc/OneDrive/Documents/Academic and Industry work/ASU 2020-2021/Consensys-Academy/supply-chain-exercise-fmendoz7/contracts/SupplyChain.sol",
  "compiler": {
    "name": "solc",
    "version": "0.6.12+commit.27d51765.Emscripten.clang"
  },
  "schemaVersion": "3.3.2",
  "updatedAt": "2020-11-23T10:54:37.212Z",
  "networkType": "ethereum",
  "devdoc": {
    "kind": "dev",
    "methods": {},
    "version": 1
  },
  "userdoc": {
    "kind": "user",
    "methods": {},
    "version": 1
  }
}